{
  "_format": "hh-sol-artifact-1",
  "contractName": "ControlPlane",
  "sourceName": "contracts/ControlPlane.sol",
  "abi": [
    {
      "inputs": [],
      "stateMutability": "nonpayable",
      "type": "constructor"
    },
    {
      "anonymous": false,
      "inputs": [
        {
          "indexed": true,
          "internalType": "bytes32",
          "name": "reqId",
          "type": "bytes32"
        },
        {
          "indexed": false,
          "internalType": "bool",
          "name": "accepted",
          "type": "bool"
        },
        {
          "indexed": false,
          "internalType": "bytes32",
          "name": "scorePtHash",
          "type": "bytes32"
        },
        {
          "indexed": false,
          "internalType": "uint64",
          "name": "decidedAt",
          "type": "uint64"
        }
      ],
      "name": "AuthDecided",
      "type": "event"
    },
    {
      "anonymous": false,
      "inputs": [
        {
          "indexed": true,
          "internalType": "bytes32",
          "name": "reqId",
          "type": "bytes32"
        },
        {
          "indexed": true,
          "internalType": "bytes32",
          "name": "userId",
          "type": "bytes32"
        },
        {
          "indexed": true,
          "internalType": "address",
          "name": "verifier",
          "type": "address"
        },
        {
          "indexed": false,
          "internalType": "bytes32",
          "name": "scoreCtHash",
          "type": "bytes32"
        }
      ],
      "name": "AuthRequested",
      "type": "event"
    },
    {
      "anonymous": false,
      "inputs": [
        {
          "indexed": true,
          "internalType": "bytes32",
          "name": "userId",
          "type": "bytes32"
        },
        {
          "indexed": false,
          "internalType": "bytes32",
          "name": "cidHash",
          "type": "bytes32"
        },
        {
          "indexed": false,
          "internalType": "uint64",
          "name": "keyVersion",
          "type": "uint64"
        }
      ],
      "name": "UserEnrolled",
      "type": "event"
    },
    {
      "anonymous": false,
      "inputs": [
        {
          "indexed": true,
          "internalType": "bytes32",
          "name": "userId",
          "type": "bytes32"
        }
      ],
      "name": "UserRevoked",
      "type": "event"
    },
    {
      "anonymous": false,
      "inputs": [
        {
          "indexed": true,
          "internalType": "address",
          "name": "verifier",
          "type": "address"
        },
        {
          "indexed": false,
          "internalType": "bool",
          "name": "allowed",
          "type": "bool"
        }
      ],
      "name": "VerifierSet",
      "type": "event"
    },
    {
      "inputs": [],
      "name": "admin",
      "outputs": [
        {
          "internalType": "address",
          "name": "",
          "type": "address"
        }
      ],
      "stateMutability": "view",
      "type": "function"
    },
    {
      "inputs": [
        {
          "internalType": "bytes32",
          "name": "reqId",
          "type": "bytes32"
        },
        {
          "internalType": "bool",
          "name": "accepted",
          "type": "bool"
        },
        {
          "internalType": "bytes32",
          "name": "scorePtHash",
          "type": "bytes32"
        }
      ],
      "name": "decide",
      "outputs": [],
      "stateMutability": "nonpayable",
      "type": "function"
    },
    {
      "inputs": [
        {
          "internalType": "bytes32",
          "name": "userId",
          "type": "bytes32"
        },
        {
          "internalType": "bytes32",
          "name": "cidHash",
          "type": "bytes32"
        },
        {
          "internalType": "uint64",
          "name": "keyVersion",
          "type": "uint64"
        }
      ],
      "name": "enroll",
      "outputs": [],
      "stateMutability": "nonpayable",
      "type": "function"
    },
    {
      "inputs": [
        {
          "internalType": "bytes32",
          "name": "userId",
          "type": "bytes32"
        }
      ],
      "name": "getUser",
      "outputs": [
        {
          "components": [
            {
              "internalType": "enum ControlPlane.Status",
              "name": "status",
              "type": "uint8"
            },
            {
              "internalType": "bytes32",
              "name": "cidHash",
              "type": "bytes32"
            },
            {
              "internalType": "uint64",
              "name": "keyVersion",
              "type": "uint64"
            },
            {
              "internalType": "uint64",
              "name": "createdAt",
              "type": "uint64"
            },
            {
              "internalType": "uint64",
              "name": "updatedAt",
              "type": "uint64"
            }
          ],
          "internalType": "struct ControlPlane.UserRec",
          "name": "",
          "type": "tuple"
        }
      ],
      "stateMutability": "view",
      "type": "function"
    },
    {
      "inputs": [
        {
          "internalType": "bytes32",
          "name": "reqId",
          "type": "bytes32"
        },
        {
          "internalType": "bytes32",
          "name": "userId",
          "type": "bytes32"
        },
        {
          "internalType": "bytes32",
          "name": "scoreCtHash",
          "type": "bytes32"
        }
      ],
      "name": "requestAuth",
      "outputs": [],
      "stateMutability": "nonpayable",
      "type": "function"
    },
    {
      "inputs": [
        {
          "internalType": "bytes32",
          "name": "userId",
          "type": "bytes32"
        }
      ],
      "name": "revoke",
      "outputs": [],
      "stateMutability": "nonpayable",
      "type": "function"
    },
    {
      "inputs": [
        {
          "internalType": "address",
          "name": "v",
          "type": "address"
        },
        {
          "internalType": "bool",
          "name": "allowed",
          "type": "bool"
        }
      ],
      "name": "setVerifier",
      "outputs": [],
      "stateMutability": "nonpayable",
      "type": "function"
    },
    {
      "inputs": [
        {
          "internalType": "bytes32",
          "name": "",
          "type": "bytes32"
        }
      ],
      "name": "users",
      "outputs": [
        {
          "internalType": "enum ControlPlane.Status",
          "name": "status",
          "type": "uint8"
        },
        {
          "internalType": "bytes32",
          "name": "cidHash",
          "type": "bytes32"
        },
        {
          "internalType": "uint64",
          "name": "keyVersion",
          "type": "uint64"
        },
        {
          "internalType": "uint64",
          "name": "createdAt",
          "type": "uint64"
        },
        {
          "internalType": "uint64",
          "name": "updatedAt",
          "type": "uint64"
        }
      ],
      "stateMutability": "view",
      "type": "function"
    },
    {
      "inputs": [
        {
          "internalType": "address",
          "name": "",
          "type": "address"
        }
      ],
      "name": "verifiers",
      "outputs": [
        {
          "internalType": "bool",
          "name": "",
          "type": "bool"
        }
      ],
      "stateMutability": "view",
      "type": "function"
    }
  ],
  "bytecode": "0x608060405234801561001057600080fd5b50336000806101000a81548173ffffffffffffffffffffffffffffffffffffffff021916908373ffffffffffffffffffffffffffffffffffffffff1602179055506111ce806100606000396000f3fe608060405234801561001057600080fd5b50600436106100925760003560e01c806399a945b91161006657806399a945b91461012f578063ac9b56711461014b578063b75c7dc614610167578063cea6ab9814610183578063f851a440146101b757610092565b8062941eec1461009757806347a9ba92146100b35780636517579c146100cf5780636c824487146100ff575b600080fd5b6100b160048036038101906100ac9190610bab565b6101d5565b005b6100cd60048036038101906100c89190610c3e565b6102a4565b005b6100e960048036038101906100e49190610c91565b6104a6565b6040516100f69190610dbb565b60405180910390f35b61011960048036038101906101149190610e34565b6105ae565b6040516101269190610e70565b60405180910390f35b61014960048036038101906101449190610e8b565b6105ce565b005b61016560048036038101906101609190610ede565b610739565b005b610181600480360381019061017c9190610c91565b610870565b005b61019d60048036038101906101989190610c91565b610a33565b6040516101ae959493929190610f4b565b60405180910390f35b6101bf610ab2565b6040516101cc9190610fad565b60405180910390f35b60008054906101000a900473ffffffffffffffffffffffffffffffffffffffff1673ffffffffffffffffffffffffffffffffffffffff163373ffffffffffffffffffffffffffffffffffffffff1614610263576040517f08c379a000000000000000000000000000000000000000000000000000000000815260040161025a90611025565b60405180910390fd5b827fb55ee0f8c7a19fb9050025c0a5c6068840fe50daa32d952ffc37a4160042ba6683834260405161029793929190611045565b60405180910390a2505050565b60008054906101000a900473ffffffffffffffffffffffffffffffffffffffff1673ffffffffffffffffffffffffffffffffffffffff163373ffffffffffffffffffffffffffffffffffffffff1614610332576040517f08c379a000000000000000000000000000000000000000000000000000000000815260040161032990611025565b60405180910390fd5b6040518060a001604052806001600281111561035157610350610cbe565b5b81526020018381526020018267ffffffffffffffff1681526020014267ffffffffffffffff1681526020014267ffffffffffffffff168152506002600085815260200190815260200160002060008201518160000160006101000a81548160ff021916908360028111156103c8576103c7610cbe565b5b02179055506020820151816001015560408201518160020160006101000a81548167ffffffffffffffff021916908367ffffffffffffffff16021790555060608201518160020160086101000a81548167ffffffffffffffff021916908367ffffffffffffffff16021790555060808201518160020160106101000a81548167ffffffffffffffff021916908367ffffffffffffffff160217905550905050827f873355281b405526fd7730dc8b6f67c2b3cfd0f69e8bdae98bcf1fa3193d5128838360405161049992919061107c565b60405180910390a2505050565b6104ae610ad6565b600260008381526020019081526020016000206040518060a00160405290816000820160009054906101000a900460ff1660028111156104f1576104f0610cbe565b5b600281111561050357610502610cbe565b5b8152602001600182015481526020016002820160009054906101000a900467ffffffffffffffff1667ffffffffffffffff1667ffffffffffffffff1681526020016002820160089054906101000a900467ffffffffffffffff1667ffffffffffffffff1667ffffffffffffffff1681526020016002820160109054906101000a900467ffffffffffffffff1667ffffffffffffffff1667ffffffffffffffff16815250509050919050565b60016020528060005260406000206000915054906101000a900460ff1681565b600160003373ffffffffffffffffffffffffffffffffffffffff1673ffffffffffffffffffffffffffffffffffffffff16815260200190815260200160002060009054906101000a900460ff1661065a576040517f08c379a0000000000000000000000000000000000000000000000000000000008152600401610651906110f1565b60405180910390fd5b6001600281111561066e5761066d610cbe565b5b6002600084815260200190815260200160002060000160009054906101000a900460ff1660028111156106a4576106a3610cbe565b5b146106e4576040517f08c379a00000000000000000000000000000000000000000000000000000000081526004016106db9061115d565b60405180910390fd5b3373ffffffffffffffffffffffffffffffffffffffff1682847f69b7fdb41a4711dd90348853ea7a7f46746fb05f30881d8a456ad00620a91a1b8460405161072c919061117d565b60405180910390a4505050565b60008054906101000a900473ffffffffffffffffffffffffffffffffffffffff1673ffffffffffffffffffffffffffffffffffffffff163373ffffffffffffffffffffffffffffffffffffffff16146107c7576040517f08c379a00000000000000000000000000000000000000000000000000000000081526004016107be90611025565b60405180910390fd5b80600160008473ffffffffffffffffffffffffffffffffffffffff1673ffffffffffffffffffffffffffffffffffffffff16815260200190815260200160002060006101000a81548160ff0219169083151502179055508173ffffffffffffffffffffffffffffffffffffffff167f7a6dd775b9b6aa6ebde6f0c51172ef328eb9658e095364751705f28234e7257c826040516108649190610e70565b60405180910390a25050565b60008054906101000a900473ffffffffffffffffffffffffffffffffffffffff1673ffffffffffffffffffffffffffffffffffffffff163373ffffffffffffffffffffffffffffffffffffffff16146108fe576040517f08c379a00000000000000000000000000000000000000000000000000000000081526004016108f590611025565b60405180910390fd5b6001600281111561091257610911610cbe565b5b6002600083815260200190815260200160002060000160009054906101000a900460ff16600281111561094857610947610cbe565b5b14610988576040517f08c379a000000000000000000000000000000000000000000000000000000000815260040161097f9061115d565b60405180910390fd5b600280600083815260200190815260200160002060000160006101000a81548160ff021916908360028111156109c1576109c0610cbe565b5b0217905550426002600083815260200190815260200160002060020160106101000a81548167ffffffffffffffff021916908367ffffffffffffffff160217905550807f71d5486e80ad38b3d61be83d94075c71b16b440cb55041e1b166d72484219d0a60405160405180910390a250565b60026020528060005260406000206000915090508060000160009054906101000a900460ff16908060010154908060020160009054906101000a900467ffffffffffffffff16908060020160089054906101000a900467ffffffffffffffff16908060020160109054906101000a900467ffffffffffffffff16905085565b60008054906101000a900473ffffffffffffffffffffffffffffffffffffffff1681565b6040518060a0016040528060006002811115610af557610af4610cbe565b5b815260200160008019168152602001600067ffffffffffffffff168152602001600067ffffffffffffffff168152602001600067ffffffffffffffff1681525090565b600080fd5b6000819050919050565b610b5081610b3d565b8114610b5b57600080fd5b50565b600081359050610b6d81610b47565b92915050565b60008115159050919050565b610b8881610b73565b8114610b9357600080fd5b50565b600081359050610ba581610b7f565b92915050565b600080600060608486031215610bc457610bc3610b38565b5b6000610bd286828701610b5e565b9350506020610be386828701610b96565b9250506040610bf486828701610b5e565b9150509250925092565b600067ffffffffffffffff82169050919050565b610c1b81610bfe565b8114610c2657600080fd5b50565b600081359050610c3881610c12565b92915050565b600080600060608486031215610c5757610c56610b38565b5b6000610c6586828701610b5e565b9350506020610c7686828701610b5e565b9250506040610c8786828701610c29565b9150509250925092565b600060208284031215610ca757610ca6610b38565b5b6000610cb584828501610b5e565b91505092915050565b7f4e487b7100000000000000000000000000000000000000000000000000000000600052602160045260246000fd5b60038110610cfe57610cfd610cbe565b5b50565b6000819050610d0f82610ced565b919050565b6000610d1f82610d01565b9050919050565b610d2f81610d14565b82525050565b610d3e81610b3d565b82525050565b610d4d81610bfe565b82525050565b60a082016000820151610d696000850182610d26565b506020820151610d7c6020850182610d35565b506040820151610d8f6040850182610d44565b506060820151610da26060850182610d44565b506080820151610db56080850182610d44565b50505050565b600060a082019050610dd06000830184610d53565b92915050565b600073ffffffffffffffffffffffffffffffffffffffff82169050919050565b6000610e0182610dd6565b9050919050565b610e1181610df6565b8114610e1c57600080fd5b50565b600081359050610e2e81610e08565b92915050565b600060208284031215610e4a57610e49610b38565b5b6000610e5884828501610e1f565b91505092915050565b610e6a81610b73565b82525050565b6000602082019050610e856000830184610e61565b92915050565b600080600060608486031215610ea457610ea3610b38565b5b6000610eb286828701610b5e565b9350506020610ec386828701610b5e565b9250506040610ed486828701610b5e565b9150509250925092565b60008060408385031215610ef557610ef4610b38565b5b6000610f0385828601610e1f565b9250506020610f1485828601610b96565b9150509250929050565b610f2781610d14565b82525050565b610f3681610b3d565b82525050565b610f4581610bfe565b82525050565b600060a082019050610f606000830188610f1e565b610f6d6020830187610f2d565b610f7a6040830186610f3c565b610f876060830185610f3c565b610f946080830184610f3c565b9695505050505050565b610fa781610df6565b82525050565b6000602082019050610fc26000830184610f9e565b92915050565b600082825260208201905092915050565b7f61646d696e000000000000000000000000000000000000000000000000000000600082015250565b600061100f600583610fc8565b915061101a82610fd9565b602082019050919050565b6000602082019050818103600083015261103e81611002565b9050919050565b600060608201905061105a6000830186610e61565b6110676020830185610f2d565b6110746040830184610f3c565b949350505050565b60006040820190506110916000830185610f2d565b61109e6020830184610f3c565b9392505050565b7f7665726966696572000000000000000000000000000000000000000000000000600082015250565b60006110db600883610fc8565b91506110e6826110a5565b602082019050919050565b6000602082019050818103600083015261110a816110ce565b9050919050565b7f6e6f742061637469766500000000000000000000000000000000000000000000600082015250565b6000611147600a83610fc8565b915061115282611111565b602082019050919050565b600060208201905081810360008301526111768161113a565b9050919050565b60006020820190506111926000830184610f2d565b9291505056fea2646970667358221220ae8150b65c16be7eb0bdd252f523d57afa235b0c14f141ebd2eee84aa66e72b564736f6c63430008140033",
  "linkReferences": {},
  "deployedLinkReferences": {}
}